{
  "_format": "hh-sol-artifact-1",
  "contractName": "Crowdfunding",
  "sourceName": "contracts/Crowdfunding.sol",
  "abi": [
    {
      "anonymous": false,
      "inputs": [
        {
          "indexed": false,
          "internalType": "uint256",
          "name": "campaignId",
          "type": "uint256"
        },
        {
          "indexed": false,
          "internalType": "address",
          "name": "creator",
          "type": "address"
        },
        {
          "indexed": false,
          "internalType": "uint256",
          "name": "goal",
          "type": "uint256"
        },
        {
          "indexed": false,
          "internalType": "uint256",
          "name": "deadline",
          "type": "uint256"
        }
      ],
      "name": "CampaignCreated",
      "type": "event"
    },
    {
      "anonymous": false,
      "inputs": [
        {
          "indexed": false,
          "internalType": "uint256",
          "name": "campaignId",
          "type": "uint256"
        },
        {
          "indexed": false,
          "internalType": "address",
          "name": "contributor",
          "type": "address"
        },
        {
          "indexed": false,
          "internalType": "uint256",
          "name": "amount",
          "type": "uint256"
        }
      ],
      "name": "ContributionMade",
      "type": "event"
    },
    {
      "anonymous": false,
      "inputs": [
        {
          "indexed": false,
          "internalType": "uint256",
          "name": "campaignId",
          "type": "uint256"
        },
        {
          "indexed": true,
          "internalType": "address",
          "name": "creator",
          "type": "address"
        },
        {
          "indexed": false,
          "internalType": "uint256",
          "name": "amount",
          "type": "uint256"
        }
      ],
      "name": "FundsWithdrawn",
      "type": "event"
    },
    {
      "anonymous": false,
      "inputs": [
        {
          "indexed": false,
          "internalType": "uint256",
          "name": "campaignId",
          "type": "uint256"
        },
        {
          "indexed": false,
          "internalType": "address",
          "name": "contributor",
          "type": "address"
        },
        {
          "indexed": false,
          "internalType": "uint256",
          "name": "amount",
          "type": "uint256"
        }
      ],
      "name": "RefundClaimed",
      "type": "event"
    },
    {
      "inputs": [
        {
          "internalType": "uint256",
          "name": "",
          "type": "uint256"
        }
      ],
      "name": "campaigns",
      "outputs": [
        {
          "internalType": "address payable",
          "name": "creator",
          "type": "address"
        },
        {
          "internalType": "uint256",
          "name": "goal",
          "type": "uint256"
        },
        {
          "internalType": "uint256",
          "name": "deadline",
          "type": "uint256"
        },
        {
          "internalType": "uint256",
          "name": "amountCollected",
          "type": "uint256"
        },
        {
          "internalType": "bool",
          "name": "goalReached",
          "type": "bool"
        },
        {
          "internalType": "bool",
          "name": "fundsWithdrawn",
          "type": "bool"
        }
      ],
      "stateMutability": "view",
      "type": "function"
    },
    {
      "inputs": [
        {
          "internalType": "uint256",
          "name": "_campaignId",
          "type": "uint256"
        }
      ],
      "name": "contribute",
      "outputs": [],
      "stateMutability": "payable",
      "type": "function"
    },
    {
      "inputs": [
        {
          "internalType": "uint256",
          "name": "",
          "type": "uint256"
        },
        {
          "internalType": "address",
          "name": "",
          "type": "address"
        }
      ],
      "name": "contributions",
      "outputs": [
        {
          "internalType": "uint256",
          "name": "",
          "type": "uint256"
        }
      ],
      "stateMutability": "view",
      "type": "function"
    },
    {
      "inputs": [
        {
          "internalType": "uint256",
          "name": "_goal",
          "type": "uint256"
        },
        {
          "internalType": "uint256",
          "name": "_durationInDays",
          "type": "uint256"
        }
      ],
      "name": "createCampaign",
      "outputs": [],
      "stateMutability": "nonpayable",
      "type": "function"
    },
    {
      "inputs": [
        {
          "internalType": "uint256",
          "name": "_campaignId",
          "type": "uint256"
        }
      ],
      "name": "refundContribution",
      "outputs": [],
      "stateMutability": "nonpayable",
      "type": "function"
    },
    {
      "inputs": [
        {
          "internalType": "uint256",
          "name": "_campaignId",
          "type": "uint256"
        }
      ],
      "name": "withdrawCampaignFunds",
      "outputs": [],
      "stateMutability": "nonpayable",
      "type": "function"
    }
  ],
  "bytecode": "0x608060405234801561001057600080fd5b50611436806100206000396000f3fe6080604052600436106100555760003560e01c806314169e2a1461005a578063141961bc1461008357806322502268146100c55780633d891f59146100ee5780637f647f9d1461012b578063c1cbbca714610154575b600080fd5b34801561006657600080fd5b50610081600480360381019061007c9190610b05565b610170565b005b34801561008f57600080fd5b506100aa60048036038101906100a59190610b05565b6104dc565b6040516100bc96959493929190610b9d565b60405180910390f35b3480156100d157600080fd5b506100ec60048036038101906100e79190610bfe565b610562565b005b3480156100fa57600080fd5b5061011560048036038101906101109190610c7c565b6106ee565b6040516101229190610cbc565b60405180910390f35b34801561013757600080fd5b50610152600480360381019061014d9190610b05565b610713565b005b61016e60048036038101906101699190610b05565b61095a565b005b60008054906101000a900460ff16156101be576040517f08c379a00000000000000000000000000000000000000000000000000000000081526004016101b590610d34565b60405180910390fd5b60016000806101000a81548160ff0219169083151502179055506000600182815481106101ee576101ed610d54565b5b906000526020600020906005020190508060020154421015610245576040517f08c379a000000000000000000000000000000000000000000000000000000000815260040161023c90610dcf565b60405180910390fd5b8060000160009054906101000a900473ffffffffffffffffffffffffffffffffffffffff1673ffffffffffffffffffffffffffffffffffffffff163373ffffffffffffffffffffffffffffffffffffffff16146102d7576040517f08c379a00000000000000000000000000000000000000000000000000000000081526004016102ce90610e61565b60405180910390fd5b8060040160019054906101000a900460ff1615610329576040517f08c379a000000000000000000000000000000000000000000000000000000000815260040161032090610ef3565b60405180910390fd5b60008160030154905060008111610375576040517f08c379a000000000000000000000000000000000000000000000000000000000815260040161036c90610f5f565b60405180910390fd5b60018260040160016101000a81548160ff0219169083151502179055506000826003018190555060008260000160009054906101000a900473ffffffffffffffffffffffffffffffffffffffff1673ffffffffffffffffffffffffffffffffffffffff16826040516103e690610fb0565b60006040518083038185875af1925050503d8060008114610423576040519150601f19603f3d011682016040523d82523d6000602084013e610428565b606091505b505090508061046c576040517f08c379a000000000000000000000000000000000000000000000000000000000815260040161046390611011565b60405180910390fd5b3373ffffffffffffffffffffffffffffffffffffffff167ff440aec6b52895984d061d622e6edeba6210f7c3e059be920663140c084560d785846040516104b4929190611031565b60405180910390a250505060008060006101000a81548160ff02191690831515021790555050565b600181815481106104ec57600080fd5b90600052602060002090600502016000915090508060000160009054906101000a900473ffffffffffffffffffffffffffffffffffffffff16908060010154908060020154908060030154908060040160009054906101000a900460ff16908060040160019054906101000a900460ff16905086565b600062015180826105739190611089565b4261057e91906110cb565b905060016040518060c001604052803373ffffffffffffffffffffffffffffffffffffffff1681526020018581526020018381526020016000815260200160001515815260200160001515815250908060018154018082558091505060019003906000526020600020906005020160009091909190915060008201518160000160006101000a81548173ffffffffffffffffffffffffffffffffffffffff021916908373ffffffffffffffffffffffffffffffffffffffff16021790555060208201518160010155604082015181600201556060820151816003015560808201518160040160006101000a81548160ff02191690831515021790555060a08201518160040160016101000a81548160ff02191690831515021790555050507f91b289a829e71d811b8c69e4a24ba2d40d115d8a236e9a724cb3bb2d43cf7223600180805490506106ce91906110ff565b3385846040516106e19493929190611142565b60405180910390a1505050565b6002602052816000526040600020602052806000526040600020600091509150505481565b60006001828154811061072957610728610d54565b5b906000526020600020906005020190508060020154421161077f576040517f08c379a0000000000000000000000000000000000000000000000000000000008152600401610776906111d3565b60405180910390fd5b60006002600084815260200190815260200160002060003373ffffffffffffffffffffffffffffffffffffffff1673ffffffffffffffffffffffffffffffffffffffff16815260200190815260200160002054905060008111610817576040517f08c379a000000000000000000000000000000000000000000000000000000000815260040161080e9061123f565b60405180910390fd5b60006002600085815260200190815260200160002060003373ffffffffffffffffffffffffffffffffffffffff1673ffffffffffffffffffffffffffffffffffffffff1681526020019081526020016000208190555060003373ffffffffffffffffffffffffffffffffffffffff168260405161089390610fb0565b60006040518083038185875af1925050503d80600081146108d0576040519150601f19603f3d011682016040523d82523d6000602084013e6108d5565b606091505b5050905080610919576040517f08c379a0000000000000000000000000000000000000000000000000000000008152600401610910906112ab565b60405180910390fd5b7ff3f402280ef0a7905e124aa621b65eaeb2725c343e8b36d398ed78c29daf285c84338460405161094c939291906112cb565b60405180910390a150505050565b6000600182815481106109705761096f610d54565b5b90600052602060002090600502019050806002015442106109c6576040517f08c379a00000000000000000000000000000000000000000000000000000000081526004016109bd9061134e565b60405180910390fd5b60003411610a09576040517f08c379a0000000000000000000000000000000000000000000000000000000008152600401610a00906113e0565b60405180910390fd5b34816003016000828254610a1d91906110cb565b92505081905550346002600084815260200190815260200160002060003373ffffffffffffffffffffffffffffffffffffffff1673ffffffffffffffffffffffffffffffffffffffff1681526020019081526020016000206000828254610a8491906110cb565b925050819055507f0a4a91237423e0a1766a761c7cb029311d8b95d6b1b81db1b949a70c98b4e08e823334604051610abe939291906112cb565b60405180910390a15050565b600080fd5b6000819050919050565b610ae281610acf565b8114610aed57600080fd5b50565b600081359050610aff81610ad9565b92915050565b600060208284031215610b1b57610b1a610aca565b5b6000610b2984828501610af0565b91505092915050565b600073ffffffffffffffffffffffffffffffffffffffff82169050919050565b6000610b5d82610b32565b9050919050565b610b6d81610b52565b82525050565b610b7c81610acf565b82525050565b60008115159050919050565b610b9781610b82565b82525050565b600060c082019050610bb26000830189610b64565b610bbf6020830188610b73565b610bcc6040830187610b73565b610bd96060830186610b73565b610be66080830185610b8e565b610bf360a0830184610b8e565b979650505050505050565b60008060408385031215610c1557610c14610aca565b5b6000610c2385828601610af0565b9250506020610c3485828601610af0565b9150509250929050565b6000610c4982610b32565b9050919050565b610c5981610c3e565b8114610c6457600080fd5b50565b600081359050610c7681610c50565b92915050565b60008060408385031215610c9357610c92610aca565b5b6000610ca185828601610af0565b9250506020610cb285828601610c67565b9150509250929050565b6000602082019050610cd16000830184610b73565b92915050565b600082825260208201905092915050565b7f5265656e7472616e742063616c6c2e0000000000000000000000000000000000600082015250565b6000610d1e600f83610cd7565b9150610d2982610ce8565b602082019050919050565b60006020820190508181036000830152610d4d81610d11565b9050919050565b7f4e487b7100000000000000000000000000000000000000000000000000000000600052603260045260246000fd5b7f5468652063616d706169676e206861736e277420656e6465642e000000000000600082015250565b6000610db9601a83610cd7565b9150610dc482610d83565b602082019050919050565b60006020820190508181036000830152610de881610dac565b9050919050565b7f4f6e6c79207468652063726561746f72206f6620746869732063616d7061696760008201527f6e2063616e207769746864726177207468652046756e64730000000000000000602082015250565b6000610e4b603883610cd7565b9150610e5682610def565b604082019050919050565b60006020820190508181036000830152610e7a81610e3e565b9050919050565b7f46756e6473206861766520616c7265616479206265656e20776974686472617760008201527f6e2e000000000000000000000000000000000000000000000000000000000000602082015250565b6000610edd602283610cd7565b9150610ee882610e81565b604082019050919050565b60006020820190508181036000830152610f0c81610ed0565b9050919050565b7f4e6f2046756e647320746f2077697468647261772e0000000000000000000000600082015250565b6000610f49601583610cd7565b9150610f5482610f13565b602082019050919050565b60006020820190508181036000830152610f7881610f3c565b9050919050565b600081905092915050565b50565b6000610f9a600083610f7f565b9150610fa582610f8a565b600082019050919050565b6000610fbb82610f8d565b9150819050919050565b7f5472616e73666572206661696c65642e00000000000000000000000000000000600082015250565b6000610ffb601083610cd7565b915061100682610fc5565b602082019050919050565b6000602082019050818103600083015261102a81610fee565b9050919050565b60006040820190506110466000830185610b73565b6110536020830184610b73565b9392505050565b7f4e487b7100000000000000000000000000000000000000000000000000000000600052601160045260246000fd5b600061109482610acf565b915061109f83610acf565b92508282026110ad81610acf565b915082820484148315176110c4576110c361105a565b5b5092915050565b60006110d682610acf565b91506110e183610acf565b92508282019050808211156110f9576110f861105a565b5b92915050565b600061110a82610acf565b915061111583610acf565b925082820390508181111561112d5761112c61105a565b5b92915050565b61113c81610c3e565b82525050565b60006080820190506111576000830187610b73565b6111646020830186611133565b6111716040830185610b73565b61117e6060830184610b73565b95945050505050565b7f43616d706169676e206e6f7420656e646564207965742e000000000000000000600082015250565b60006111bd601783610cd7565b91506111c882611187565b602082019050919050565b600060208201905081810360008301526111ec816111b0565b9050919050565b7f4e6f20636f6e747269627574696f6e7320746f20726566756e642e0000000000600082015250565b6000611229601b83610cd7565b9150611234826111f3565b602082019050919050565b600060208201905081810360008301526112588161121c565b9050919050565b7f526566756e64206661696c65642e000000000000000000000000000000000000600082015250565b6000611295600e83610cd7565b91506112a08261125f565b602082019050919050565b600060208201905081810360008301526112c481611288565b9050919050565b60006060820190506112e06000830186610b73565b6112ed6020830185611133565b6112fa6040830184610b73565b949350505050565b7f5468652063616d706169676e2068617320656e6465642e000000000000000000600082015250565b6000611338601783610cd7565b915061134382611302565b602082019050919050565b600060208201905081810360008301526113678161132b565b9050919050565b7f436f6e747269627574696f6e20616d6f756e74206d757374206265206772656160008201527f746572207468616e207a65726f2e000000000000000000000000000000000000602082015250565b60006113ca602e83610cd7565b91506113d58261136e565b604082019050919050565b600060208201905081810360008301526113f9816113bd565b905091905056fea264697066735822122034e1f4404aeed410b4735ddb77063df10abde33008286edd1917af62a4afa75764736f6c63430008180033",
  "linkReferences": {},
  "deployedLinkReferences": {}
}